{
  "contractName": "NftreeV2",
  "abi": [
    {
      "inputs": [
        {
          "internalType": "address",
          "name": "own_",
          "type": "address"
        }
      ],
      "stateMutability": "nonpayable",
      "type": "constructor"
    },
    {
      "anonymous": false,
      "inputs": [
        {
          "indexed": true,
          "internalType": "address",
          "name": "owner",
          "type": "address"
        },
        {
          "indexed": true,
          "internalType": "address",
          "name": "approved",
          "type": "address"
        },
        {
          "indexed": true,
          "internalType": "uint256",
          "name": "tokenId",
          "type": "uint256"
        }
      ],
      "name": "Approval",
      "type": "event"
    },
    {
      "anonymous": false,
      "inputs": [
        {
          "indexed": true,
          "internalType": "address",
          "name": "owner",
          "type": "address"
        },
        {
          "indexed": true,
          "internalType": "address",
          "name": "operator",
          "type": "address"
        },
        {
          "indexed": false,
          "internalType": "bool",
          "name": "approved",
          "type": "bool"
        }
      ],
      "name": "ApprovalForAll",
      "type": "event"
    },
    {
      "anonymous": false,
      "inputs": [
        {
          "indexed": true,
          "internalType": "address",
          "name": "from",
          "type": "address"
        },
        {
          "indexed": true,
          "internalType": "address",
          "name": "to",
          "type": "address"
        },
        {
          "indexed": true,
          "internalType": "uint256",
          "name": "tokenId",
          "type": "uint256"
        }
      ],
      "name": "Transfer",
      "type": "event"
    },
    {
      "inputs": [
        {
          "internalType": "address",
          "name": "",
          "type": "address"
        },
        {
          "internalType": "uint256",
          "name": "",
          "type": "uint256"
        }
      ],
      "name": "_epochData",
      "outputs": [
        {
          "internalType": "uint256",
          "name": "start",
          "type": "uint256"
        },
        {
          "internalType": "uint256",
          "name": "end",
          "type": "uint256"
        },
        {
          "internalType": "uint256",
          "name": "treeId",
          "type": "uint256"
        }
      ],
      "stateMutability": "view",
      "type": "function"
    },
    {
      "inputs": [
        {
          "internalType": "address",
          "name": "",
          "type": "address"
        },
        {
          "internalType": "uint256",
          "name": "",
          "type": "uint256"
        }
      ],
      "name": "_epochGeneration",
      "outputs": [
        {
          "internalType": "uint256",
          "name": "carbonCredit",
          "type": "uint256"
        },
        {
          "internalType": "uint256",
          "name": "greenBond",
          "type": "uint256"
        }
      ],
      "stateMutability": "view",
      "type": "function"
    },
    {
      "inputs": [
        {
          "internalType": "address",
          "name": "",
          "type": "address"
        }
      ],
      "name": "_generatedEpochs",
      "outputs": [
        {
          "internalType": "uint256",
          "name": "",
          "type": "uint256"
        }
      ],
      "stateMutability": "view",
      "type": "function"
    },
    {
      "inputs": [
        {
          "internalType": "string",
          "name": "",
          "type": "string"
        }
      ],
      "name": "_isExists",
      "outputs": [
        {
          "internalType": "bool",
          "name": "",
          "type": "bool"
        }
      ],
      "stateMutability": "view",
      "type": "function"
    },
    {
      "inputs": [
        {
          "internalType": "uint256",
          "name": "",
          "type": "uint256"
        }
      ],
      "name": "_lastSnap",
      "outputs": [
        {
          "internalType": "uint256",
          "name": "",
          "type": "uint256"
        }
      ],
      "stateMutability": "view",
      "type": "function"
    },
    {
      "inputs": [
        {
          "internalType": "uint256",
          "name": "",
          "type": "uint256"
        }
      ],
      "name": "_treeData",
      "outputs": [
        {
          "internalType": "string",
          "name": "treeId",
          "type": "string"
        },
        {
          "internalType": "string",
          "name": "treeName",
          "type": "string"
        },
        {
          "internalType": "string",
          "name": "longitude",
          "type": "string"
        },
        {
          "internalType": "string",
          "name": "latitude",
          "type": "string"
        },
        {
          "internalType": "uint256",
          "name": "carbonDioxideOffset",
          "type": "uint256"
        }
      ],
      "stateMutability": "view",
      "type": "function"
    },
    {
      "inputs": [
        {
          "internalType": "address",
          "name": "to",
          "type": "address"
        },
        {
          "internalType": "uint256",
          "name": "tokenId",
          "type": "uint256"
        }
      ],
      "name": "approve",
      "outputs": [],
      "stateMutability": "nonpayable",
      "type": "function"
    },
    {
      "inputs": [
        {
          "internalType": "address",
          "name": "owner",
          "type": "address"
        }
      ],
      "name": "balanceOf",
      "outputs": [
        {
          "internalType": "uint256",
          "name": "",
          "type": "uint256"
        }
      ],
      "stateMutability": "view",
      "type": "function"
    },
    {
      "inputs": [
        {
          "internalType": "uint256",
          "name": "tokenId",
          "type": "uint256"
        }
      ],
      "name": "getApproved",
      "outputs": [
        {
          "internalType": "address",
          "name": "",
          "type": "address"
        }
      ],
      "stateMutability": "view",
      "type": "function"
    },
    {
      "inputs": [
        {
          "internalType": "address",
          "name": "owner",
          "type": "address"
        },
        {
          "internalType": "address",
          "name": "operator",
          "type": "address"
        }
      ],
      "name": "isApprovedForAll",
      "outputs": [
        {
          "internalType": "bool",
          "name": "",
          "type": "bool"
        }
      ],
      "stateMutability": "view",
      "type": "function"
    },
    {
      "inputs": [],
      "name": "name",
      "outputs": [
        {
          "internalType": "string",
          "name": "",
          "type": "string"
        }
      ],
      "stateMutability": "view",
      "type": "function"
    },
    {
      "inputs": [
        {
          "internalType": "uint256",
          "name": "tokenId",
          "type": "uint256"
        }
      ],
      "name": "ownerOf",
      "outputs": [
        {
          "internalType": "address",
          "name": "",
          "type": "address"
        }
      ],
      "stateMutability": "view",
      "type": "function"
    },
    {
      "inputs": [
        {
          "internalType": "address",
          "name": "from",
          "type": "address"
        },
        {
          "internalType": "address",
          "name": "to",
          "type": "address"
        },
        {
          "internalType": "uint256",
          "name": "tokenId",
          "type": "uint256"
        }
      ],
      "name": "safeTransferFrom",
      "outputs": [],
      "stateMutability": "nonpayable",
      "type": "function"
    },
    {
      "inputs": [
        {
          "internalType": "address",
          "name": "from",
          "type": "address"
        },
        {
          "internalType": "address",
          "name": "to",
          "type": "address"
        },
        {
          "internalType": "uint256",
          "name": "tokenId",
          "type": "uint256"
        },
        {
          "internalType": "bytes",
          "name": "_data",
          "type": "bytes"
        }
      ],
      "name": "safeTransferFrom",
      "outputs": [],
      "stateMutability": "nonpayable",
      "type": "function"
    },
    {
      "inputs": [
        {
          "internalType": "address",
          "name": "operator",
          "type": "address"
        },
        {
          "internalType": "bool",
          "name": "approved",
          "type": "bool"
        }
      ],
      "name": "setApprovalForAll",
      "outputs": [],
      "stateMutability": "nonpayable",
      "type": "function"
    },
    {
      "inputs": [
        {
          "internalType": "bytes4",
          "name": "interfaceId",
          "type": "bytes4"
        }
      ],
      "name": "supportsInterface",
      "outputs": [
        {
          "internalType": "bool",
          "name": "",
          "type": "bool"
        }
      ],
      "stateMutability": "view",
      "type": "function"
    },
    {
      "inputs": [],
      "name": "symbol",
      "outputs": [
        {
          "internalType": "string",
          "name": "",
          "type": "string"
        }
      ],
      "stateMutability": "view",
      "type": "function"
    },
    {
      "inputs": [
        {
          "internalType": "uint256",
          "name": "index",
          "type": "uint256"
        }
      ],
      "name": "tokenByIndex",
      "outputs": [
        {
          "internalType": "uint256",
          "name": "",
          "type": "uint256"
        }
      ],
      "stateMutability": "view",
      "type": "function"
    },
    {
      "inputs": [
        {
          "internalType": "address",
          "name": "owner",
          "type": "address"
        },
        {
          "internalType": "uint256",
          "name": "index",
          "type": "uint256"
        }
      ],
      "name": "tokenOfOwnerByIndex",
      "outputs": [
        {
          "internalType": "uint256",
          "name": "",
          "type": "uint256"
        }
      ],
      "stateMutability": "view",
      "type": "function"
    },
    {
      "inputs": [
        {
          "internalType": "uint256",
          "name": "tokenId",
          "type": "uint256"
        }
      ],
      "name": "tokenURI",
      "outputs": [
        {
          "internalType": "string",
          "name": "",
          "type": "string"
        }
      ],
      "stateMutability": "view",
      "type": "function"
    },
    {
      "inputs": [],
      "name": "totalSupply",
      "outputs": [
        {
          "internalType": "uint256",
          "name": "",
          "type": "uint256"
        }
      ],
      "stateMutability": "view",
      "type": "function"
    },
    {
      "inputs": [
        {
          "internalType": "address",
          "name": "from",
          "type": "address"
        },
        {
          "internalType": "address",
          "name": "to",
          "type": "address"
        },
        {
          "internalType": "uint256",
          "name": "tokenId",
          "type": "uint256"
        }
      ],
      "name": "transferFrom",
      "outputs": [],
      "stateMutability": "nonpayable",
      "type": "function"
    },
    {
      "inputs": [],
      "name": "getOwner",
      "outputs": [
        {
          "internalType": "address",
          "name": "",
          "type": "address"
        }
      ],
      "stateMutability": "view",
      "type": "function"
    },
    {
      "inputs": [
        {
          "internalType": "string",
          "name": "URI_",
          "type": "string"
        }
      ],
      "name": "setBaseURI",
      "outputs": [],
      "stateMutability": "nonpayable",
      "type": "function"
    },
    {
      "inputs": [
        {
          "internalType": "address",
          "name": "minter_",
          "type": "address"
        }
      ],
      "name": "addMinter",
      "outputs": [],
      "stateMutability": "nonpayable",
      "type": "function"
    },
    {
      "inputs": [
        {
          "internalType": "address",
          "name": "minter_",
          "type": "address"
        }
      ],
      "name": "removeMinter",
      "outputs": [],
      "stateMutability": "nonpayable",
      "type": "function"
    },
    {
      "inputs": [
        {
          "internalType": "string",
          "name": "treeId_",
          "type": "string"
        },
        {
          "internalType": "string",
          "name": "treeName_",
          "type": "string"
        },
        {
          "internalType": "string",
          "name": "longitude_",
          "type": "string"
        },
        {
          "internalType": "string",
          "name": "latitude_",
          "type": "string"
        },
        {
          "internalType": "uint256",
          "name": "carbonDioxideOffset_",
          "type": "uint256"
        }
      ],
      "name": "mint",
      "outputs": [
        {
          "internalType": "uint256",
          "name": "",
          "type": "uint256"
        }
      ],
      "stateMutability": "nonpayable",
      "type": "function"
    },
    {
      "inputs": [
        {
          "internalType": "uint256",
          "name": "tokenId_",
          "type": "uint256"
        },
        {
          "internalType": "string",
          "name": "longitude_",
          "type": "string"
        },
        {
          "internalType": "string",
          "name": "latitude_",
          "type": "string"
        }
      ],
      "name": "editTreeData",
      "outputs": [],
      "stateMutability": "nonpayable",
      "type": "function"
    },
    {
      "inputs": [
        {
          "internalType": "uint256",
          "name": "fee_",
          "type": "uint256"
        }
      ],
      "name": "setCarbonCreditFee",
      "outputs": [],
      "stateMutability": "nonpayable",
      "type": "function"
    },
    {
      "inputs": [
        {
          "internalType": "uint256",
          "name": "fee_",
          "type": "uint256"
        }
      ],
      "name": "setGreenBondFee",
      "outputs": [],
      "stateMutability": "nonpayable",
      "type": "function"
    },
    {
      "inputs": [
        {
          "internalType": "uint256",
          "name": "tokenId_",
          "type": "uint256"
        }
      ],
      "name": "generateEpoch",
      "outputs": [],
      "stateMutability": "nonpayable",
      "type": "function"
    },
    {
      "inputs": [
        {
          "internalType": "uint256",
          "name": "tokenId_",
          "type": "uint256"
        },
        {
          "internalType": "uint256",
          "name": "epochIndex_",
          "type": "uint256"
        },
        {
          "internalType": "uint256",
          "name": "carbonCredit_",
          "type": "uint256"
        }
      ],
      "name": "generateCarbonCredit",
      "outputs": [],
      "stateMutability": "payable",
      "type": "function"
    },
    {
      "inputs": [
        {
          "internalType": "uint256",
          "name": "tokenId_",
          "type": "uint256"
        },
        {
          "internalType": "uint256",
          "name": "epochIndex_",
          "type": "uint256"
        },
        {
          "internalType": "uint256",
          "name": "greenBond_",
          "type": "uint256"
        }
      ],
      "name": "generateGreenBond",
      "outputs": [],
      "stateMutability": "payable",
      "type": "function"
    },
    {
      "inputs": [
        {
          "internalType": "uint256",
          "name": "tokenId_",
          "type": "uint256"
        },
        {
          "internalType": "uint256",
          "name": "epochIndex_",
          "type": "uint256"
        }
      ],
      "name": "calculateGeneration",
      "outputs": [
        {
          "internalType": "uint256",
          "name": "",
          "type": "uint256"
        }
      ],
      "stateMutability": "view",
      "type": "function"
    },
    {
      "inputs": [],
      "name": "withdraw",
      "outputs": [],
      "stateMutability": "nonpayable",
      "type": "function"
    }
  ],
  "bytecode": "0x60806040523480156200001157600080fd5b50604051620058d8380380620058d8833981810160405281019062000037919062000236565b6040518060400160405280601281526020017f547265656465666920466f7265737420563200000000000000000000000000008152506040518060400160405280600681526020017f464f5245535400000000000000000000000000000000000000000000000000008152506040518060400160405280602081526020017f68747470733a2f2f6170692e74726565646566692e636f6d2f666f726573742f8152508260009080519060200190620000f19291906200016f565b5081600190805190602001906200010a9291906200016f565b508060029080519060200190620001239291906200016f565b5050505080601160006101000a81548173ffffffffffffffffffffffffffffffffffffffff021916908373ffffffffffffffffffffffffffffffffffffffff1602179055505062000320565b8280546200017d906200029c565b90600052602060002090601f016020900481019282620001a15760008555620001ed565b82601f10620001bc57805160ff1916838001178555620001ed565b82800160010185558215620001ed579182015b82811115620001ec578251825591602001919060010190620001cf565b5b509050620001fc919062000200565b5090565b5b808211156200021b57600081600090555060010162000201565b5090565b600081519050620002308162000306565b92915050565b6000602082840312156200024f576200024e62000301565b5b60006200025f848285016200021f565b91505092915050565b600062000275826200027c565b9050919050565b600073ffffffffffffffffffffffffffffffffffffffff82169050919050565b60006002820490506001821680620002b557607f821691505b60208210811415620002cc57620002cb620002d2565b5b50919050565b7f4e487b7100000000000000000000000000000000000000000000000000000000600052602260045260246000fd5b600080fd5b620003118162000268565b81146200031d57600080fd5b50565b6155a880620003306000396000f3fe6080604052600436106102045760003560e01c806355f804b311610118578063a7926a54116100a0578063df4025e91161006f578063df4025e9146107cb578063e54d592f146107e7578063e985e9c514610824578063f936feb614610861578063fb405c231461089e57610204565b8063a7926a54146106e7578063b88d4fde14610724578063c87b56dd1461074d578063dee5b3e01461078a57610204565b8063893d20e8116100e7578063893d20e8146106165780638cd0f7ec1461064157806395d89b411461066a578063983b2d5614610695578063a22cb465146106be57610204565b806355f804b3146105365780636352211e1461055f5780636e06291b1461059c57806370a08231146105d957610204565b806323b872dd1161019b5780633ccfd60b1161016a5780633ccfd60b1461045257806342842e0e146104695780634bb2c7ad146104925780634f6ccce7146104d05780634fe13a661461050d57610204565b806323b872dd1461039a5780632f745c59146103c35780633092afd51461040057806332d818cd1461042957610204565b8063095ea7b3116101d7578063095ea7b3146102eb57806318160ddd146103145780631f6a7bf01461033f57806323a2bd3a1461035b57610204565b806301ffc9a71461020957806306fdde031461024657806307b5aab514610271578063081812fc146102ae575b600080fd5b34801561021557600080fd5b50610230600480360381019061022b9190613b6d565b6108c7565b60405161023d919061438c565b60405180910390f35b34801561025257600080fd5b5061025b610941565b60405161026891906143a7565b60405180910390f35b34801561027d57600080fd5b5061029860048036038101906102939190613db3565b6109d3565b6040516102a591906147b8565b60405180910390f35b3480156102ba57600080fd5b506102d560048036038101906102d09190613cfb565b610ae2565b6040516102e29190614325565b60405180910390f35b3480156102f757600080fd5b50610312600480360381019061030d9190613b2d565b610b67565b005b34801561032057600080fd5b50610329610c7f565b60405161033691906147b8565b60405180910390f35b61035960048036038101906103549190613df3565b610c8c565b005b34801561036757600080fd5b50610382600480360381019061037d9190613b2d565b610f63565b604051610391939291906147fc565b60405180910390f35b3480156103a657600080fd5b506103c160048036038101906103bc9190613a17565b610f9a565b005b3480156103cf57600080fd5b506103ea60048036038101906103e59190613b2d565b610ffa565b6040516103f791906147b8565b60405180910390f35b34801561040c57600080fd5b50610427600480360381019061042291906139aa565b61109f565b005b34801561043557600080fd5b50610450600480360381019061044b9190613cfb565b611191565b005b34801561045e57600080fd5b50610467611232565b005b34801561047557600080fd5b50610490600480360381019061048b9190613a17565b61131f565b005b34801561049e57600080fd5b506104b960048036038101906104b49190613b2d565b61133f565b6040516104c79291906147d3565b60405180910390f35b3480156104dc57600080fd5b506104f760048036038101906104f29190613cfb565b611370565b60405161050491906147b8565b60405180910390f35b34801561051957600080fd5b50610534600480360381019061052f9190613d28565b6113e1565b005b34801561054257600080fd5b5061055d60048036038101906105589190613bc7565b6114d3565b005b34801561056b57600080fd5b5061058660048036038101906105819190613cfb565b611576565b6040516105939190614325565b60405180910390f35b3480156105a857600080fd5b506105c360048036038101906105be9190613cfb565b611628565b6040516105d091906147b8565b60405180910390f35b3480156105e557600080fd5b5061060060048036038101906105fb91906139aa565b611640565b60405161060d91906147b8565b60405180910390f35b34801561062257600080fd5b5061062b6116f8565b6040516106389190614325565b60405180910390f35b34801561064d57600080fd5b5061066860048036038101906106639190613cfb565b611722565b005b34801561067657600080fd5b5061067f6117c3565b60405161068c91906143a7565b60405180910390f35b3480156106a157600080fd5b506106bc60048036038101906106b791906139aa565b611855565b005b3480156106ca57600080fd5b506106e560048036038101906106e09190613aed565b611947565b005b3480156106f357600080fd5b5061070e600480360381019061070991906139aa565b611ac8565b60405161071b91906147b8565b60405180910390f35b34801561073057600080fd5b5061074b60048036038101906107469190613a6a565b611ae0565b005b34801561075957600080fd5b50610774600480360381019061076f9190613cfb565b611b42565b60405161078191906143a7565b60405180910390f35b34801561079657600080fd5b506107b160048036038101906107ac9190613cfb565b611be9565b6040516107c29594939291906143c9565b60405180910390f35b6107e560048036038101906107e09190613df3565b611e3f565b005b3480156107f357600080fd5b5061080e60048036038101906108099190613bc7565b612116565b60405161081b919061438c565b60405180910390f35b34801561083057600080fd5b5061084b600480360381019061084691906139d7565b61214c565b604051610858919061438c565b60405180910390f35b34801561086d57600080fd5b5061088860048036038101906108839190613c10565b6121e0565b60405161089591906147b8565b60405180910390f35b3480156108aa57600080fd5b506108c560048036038101906108c09190613cfb565b612488565b005b60007f780e9d63000000000000000000000000000000000000000000000000000000007bffffffffffffffffffffffffffffffffffffffffffffffffffffffff1916827bffffffffffffffffffffffffffffffffffffffffffffffffffffffff1916148061093a575061093982612519565b5b9050919050565b60606000805461095090614ac8565b80601f016020809104026020016040519081016040528092919081815260200182805461097c90614ac8565b80156109c95780601f1061099e576101008083540402835291602001916109c9565b820191906000526020600020905b8154815290600101906020018083116109ac57829003601f168201915b5050505050905090565b6000610ada6301e13380610acc6010600087815260200190815260200160002060040154610abe60096000610a066125fb565b73ffffffffffffffffffffffffffffffffffffffff1673ffffffffffffffffffffffffffffffffffffffff16815260200190815260200160002060008881526020019081526020016000206000015460096000610a616125fb565b73ffffffffffffffffffffffffffffffffffffffff1673ffffffffffffffffffffffffffffffffffffffff16815260200190815260200160002060008981526020019081526020016000206001015461260390919063ffffffff16565b61261990919063ffffffff16565b61262f90919063ffffffff16565b905092915050565b6000610aed82612645565b610b2c576040517f08c379a0000000000000000000000000000000000000000000000000000000008152600401610b2390614638565b60405180910390fd5b6005600083815260200190815260200160002060009054906101000a900473ffffffffffffffffffffffffffffffffffffffff169050919050565b6000610b7282611576565b90508073ffffffffffffffffffffffffffffffffffffffff168373ffffffffffffffffffffffffffffffffffffffff161415610be3576040517f08c379a0000000000000000000000000000000000000000000000000000000008152600401610bda906146f8565b60405180910390fd5b8073ffffffffffffffffffffffffffffffffffffffff16610c026125fb565b73ffffffffffffffffffffffffffffffffffffffff161480610c315750610c3081610c2b6125fb565b61214c565b5b610c70576040517f08c379a0000000000000000000000000000000000000000000000000000000008152600401610c6790614558565b60405180910390fd5b610c7a83836126b1565b505050565b6000600c80549050905090565b601560009054906101000a900460ff1615610cdc576040517f08c379a0000000000000000000000000000000000000000000000000000000008152600401610cd390614738565b60405180910390fd5b6001601560006101000a81548160ff021916908315150217905550610d0c6013548261261990919063ffffffff16565b341015610d4e576040517f08c379a0000000000000000000000000000000000000000000000000000000008152600401610d4590614658565b60405180910390fd5b6000610d5a84846109d3565b9050610e3582610e2760166000610d6f6125fb565b73ffffffffffffffffffffffffffffffffffffffff1673ffffffffffffffffffffffffffffffffffffffff16815260200190815260200160002060008781526020019081526020016000206001015460166000610dca6125fb565b73ffffffffffffffffffffffffffffffffffffffff1673ffffffffffffffffffffffffffffffffffffffff16815260200190815260200160002060008881526020019081526020016000206000015461276a90919063ffffffff16565b61276a90919063ffffffff16565b811015610e77576040517f08c379a0000000000000000000000000000000000000000000000000000000008152600401610e6e906145b8565b60405180910390fd5b610ee48260166000610e876125fb565b73ffffffffffffffffffffffffffffffffffffffff1673ffffffffffffffffffffffffffffffffffffffff16815260200190815260200160002060008681526020019081526020016000206000015461276a90919063ffffffff16565b60166000610ef06125fb565b73ffffffffffffffffffffffffffffffffffffffff1673ffffffffffffffffffffffffffffffffffffffff168152602001908152602001600020600085815260200190815260200160002060000181905550506000601560006101000a81548160ff021916908315150217905550505050565b6009602052816000526040600020602052806000526040600020600091509150508060000154908060010154908060020154905083565b610fab610fa56125fb565b82612780565b610fea576040517f08c379a0000000000000000000000000000000000000000000000000000000008152600401610fe190614778565b60405180910390fd5b610ff583838361285e565b505050565b600061100583611640565b8210611046576040517f08c379a000000000000000000000000000000000000000000000000000000000815260040161103d90614438565b60405180910390fd5b600a60008473ffffffffffffffffffffffffffffffffffffffff1673ffffffffffffffffffffffffffffffffffffffff168152602001908152602001600020600083815260200190815260200160002054905092915050565b601160009054906101000a900473ffffffffffffffffffffffffffffffffffffffff1673ffffffffffffffffffffffffffffffffffffffff166110e06125fb565b73ffffffffffffffffffffffffffffffffffffffff1614611136576040517f08c379a000000000000000000000000000000000000000000000000000000000815260040161112d906146b8565b60405180910390fd5b6000600e60008373ffffffffffffffffffffffffffffffffffffffff1673ffffffffffffffffffffffffffffffffffffffff16815260200190815260200160002060006101000a81548160ff02191690831515021790555050565b601160009054906101000a900473ffffffffffffffffffffffffffffffffffffffff1673ffffffffffffffffffffffffffffffffffffffff166111d26125fb565b73ffffffffffffffffffffffffffffffffffffffff1614611228576040517f08c379a000000000000000000000000000000000000000000000000000000000815260040161121f90614758565b60405180910390fd5b8060148190555050565b601160009054906101000a900473ffffffffffffffffffffffffffffffffffffffff1673ffffffffffffffffffffffffffffffffffffffff166112736125fb565b73ffffffffffffffffffffffffffffffffffffffff16146112c9576040517f08c379a00000000000000000000000000000000000000000000000000000000081526004016112c0906146d8565b60405180910390fd5b60004790506112d66125fb565b73ffffffffffffffffffffffffffffffffffffffff166108fc829081150290604051600060405180830381858888f1935050505015801561131b573d6000803e3d6000fd5b5050565b61133a83838360405180602001604052806000815250611ae0565b505050565b6016602052816000526040600020602052806000526040600020600091509150508060000154908060010154905082565b600061137a610c7f565b82106113bb576040517f08c379a00000000000000000000000000000000000000000000000000000000081526004016113b290614798565b60405180910390fd5b600c82815481106113cf576113ce614c61565b5b90600052602060002001549050919050565b601160009054906101000a900473ffffffffffffffffffffffffffffffffffffffff1673ffffffffffffffffffffffffffffffffffffffff166114226125fb565b73ffffffffffffffffffffffffffffffffffffffff1614611478576040517f08c379a000000000000000000000000000000000000000000000000000000000815260040161146f90614758565b60405180910390fd5b816010600085815260200190815260200160002060020190805190602001906114a29291906137be565b50806010600085815260200190815260200160002060030190805190602001906114cd9291906137be565b50505050565b601160009054906101000a900473ffffffffffffffffffffffffffffffffffffffff1673ffffffffffffffffffffffffffffffffffffffff166115146125fb565b73ffffffffffffffffffffffffffffffffffffffff161461156a576040517f08c379a0000000000000000000000000000000000000000000000000000000008152600401611561906145f8565b60405180910390fd5b61157381612aba565b50565b6000806003600084815260200190815260200160002060009054906101000a900473ffffffffffffffffffffffffffffffffffffffff169050600073ffffffffffffffffffffffffffffffffffffffff168173ffffffffffffffffffffffffffffffffffffffff16141561161f576040517f08c379a000000000000000000000000000000000000000000000000000000000815260040161161690614598565b60405180910390fd5b80915050919050565b60076020528060005260406000206000915090505481565b60008073ffffffffffffffffffffffffffffffffffffffff168273ffffffffffffffffffffffffffffffffffffffff1614156116b1576040517f08c379a00000000000000000000000000000000000000000000000000000000081526004016116a890614578565b60405180910390fd5b600460008373ffffffffffffffffffffffffffffffffffffffff1673ffffffffffffffffffffffffffffffffffffffff168152602001908152602001600020549050919050565b6000601160009054906101000a900473ffffffffffffffffffffffffffffffffffffffff16905090565b601160009054906101000a900473ffffffffffffffffffffffffffffffffffffffff1673ffffffffffffffffffffffffffffffffffffffff166117636125fb565b73ffffffffffffffffffffffffffffffffffffffff16146117b9576040517f08c379a00000000000000000000000000000000000000000000000000000000081526004016117b090614758565b60405180910390fd5b8060138190555050565b6060600180546117d290614ac8565b80601f01602080910402602001604051908101604052809291908181526020018280546117fe90614ac8565b801561184b5780601f106118205761010080835404028352916020019161184b565b820191906000526020600020905b81548152906001019060200180831161182e57829003601f168201915b5050505050905090565b601160009054906101000a900473ffffffffffffffffffffffffffffffffffffffff1673ffffffffffffffffffffffffffffffffffffffff166118966125fb565b73ffffffffffffffffffffffffffffffffffffffff16146118ec576040517f08c379a00000000000000000000000000000000000000000000000000000000081526004016118e390614478565b60405180910390fd5b6001600e60008373ffffffffffffffffffffffffffffffffffffffff1673ffffffffffffffffffffffffffffffffffffffff16815260200190815260200160002060006101000a81548160ff02191690831515021790555050565b61194f6125fb565b73ffffffffffffffffffffffffffffffffffffffff168273ffffffffffffffffffffffffffffffffffffffff1614156119bd576040517f08c379a00000000000000000000000000000000000000000000000000000000081526004016119b4906144f8565b60405180910390fd5b80600660006119ca6125fb565b73ffffffffffffffffffffffffffffffffffffffff1673ffffffffffffffffffffffffffffffffffffffff16815260200190815260200160002060008473ffffffffffffffffffffffffffffffffffffffff1673ffffffffffffffffffffffffffffffffffffffff16815260200190815260200160002060006101000a81548160ff0219169083151502179055508173ffffffffffffffffffffffffffffffffffffffff16611a776125fb565b73ffffffffffffffffffffffffffffffffffffffff167f17307eab39ab6107e8899845ad3d59bd9653f200f220920489ca2b5937696c3183604051611abc919061438c565b60405180910390a35050565b60086020528060005260406000206000915090505481565b611af1611aeb6125fb565b83612780565b611b30576040517f08c379a0000000000000000000000000000000000000000000000000000000008152600401611b2790614778565b60405180910390fd5b611b3c84848484612ad4565b50505050565b6060611b4d82612645565b611b8c576040517f08c379a0000000000000000000000000000000000000000000000000000000008152600401611b8390614698565b60405180910390fd5b6000611b96612b30565b90506000815111611bb65760405180602001604052806000815250611be1565b80611bc084612bc2565b604051602001611bd1929190614301565b6040516020818303038152906040525b915050919050565b6010602052806000526040600020600091509050806000018054611c0c90614ac8565b80601f0160208091040260200160405190810160405280929190818152602001828054611c3890614ac8565b8015611c855780601f10611c5a57610100808354040283529160200191611c85565b820191906000526020600020905b815481529060010190602001808311611c6857829003601f168201915b505050505090806001018054611c9a90614ac8565b80601f0160208091040260200160405190810160405280929190818152602001828054611cc690614ac8565b8015611d135780601f10611ce857610100808354040283529160200191611d13565b820191906000526020600020905b815481529060010190602001808311611cf657829003601f168201915b505050505090806002018054611d2890614ac8565b80601f0160208091040260200160405190810160405280929190818152602001828054611d5490614ac8565b8015611da15780601f10611d7657610100808354040283529160200191611da1565b820191906000526020600020905b815481529060010190602001808311611d8457829003601f168201915b505050505090806003018054611db690614ac8565b80601f0160208091040260200160405190810160405280929190818152602001828054611de290614ac8565b8015611e2f5780601f10611e0457610100808354040283529160200191611e2f565b820191906000526020600020905b815481529060010190602001808311611e1257829003601f168201915b5050505050908060040154905085565b601560009054906101000a900460ff1615611e8f576040517f08c379a0000000000000000000000000000000000000000000000000000000008152600401611e8690614738565b60405180910390fd5b6001601560006101000a81548160ff021916908315150217905550611ebf6014548261261990919063ffffffff16565b341015611f01576040517f08c379a0000000000000000000000000000000000000000000000000000000008152600401611ef8906145d8565b60405180910390fd5b6000611f0d84846109d3565b9050611fe882611fda60166000611f226125fb565b73ffffffffffffffffffffffffffffffffffffffff1673ffffffffffffffffffffffffffffffffffffffff16815260200190815260200160002060008781526020019081526020016000206001015460166000611f7d6125fb565b73ffffffffffffffffffffffffffffffffffffffff1673ffffffffffffffffffffffffffffffffffffffff16815260200190815260200160002060008881526020019081526020016000206000015461276a90919063ffffffff16565b61276a90919063ffffffff16565b81101561202a576040517f08c379a0000000000000000000000000000000000000000000000000000000008152600401612021906145b8565b60405180910390fd5b612097826016600061203a6125fb565b73ffffffffffffffffffffffffffffffffffffffff1673ffffffffffffffffffffffffffffffffffffffff16815260200190815260200160002060008681526020019081526020016000206001015461276a90919063ffffffff16565b601660006120a36125fb565b73ffffffffffffffffffffffffffffffffffffffff1673ffffffffffffffffffffffffffffffffffffffff168152602001908152602001600020600085815260200190815260200160002060010181905550506000601560006101000a81548160ff021916908315150217905550505050565b600f818051602081018201805184825260208301602085012081835280955050505050506000915054906101000a900460ff1681565b6000600660008473ffffffffffffffffffffffffffffffffffffffff1673ffffffffffffffffffffffffffffffffffffffff16815260200190815260200160002060008373ffffffffffffffffffffffffffffffffffffffff1673ffffffffffffffffffffffffffffffffffffffff16815260200190815260200160002060009054906101000a900460ff16905092915050565b6000601160009054906101000a900473ffffffffffffffffffffffffffffffffffffffff1673ffffffffffffffffffffffffffffffffffffffff166122236125fb565b73ffffffffffffffffffffffffffffffffffffffff1614806122955750600e600061224c6125fb565b73ffffffffffffffffffffffffffffffffffffffff1673ffffffffffffffffffffffffffffffffffffffff16815260200190815260200160002060009054906101000a900460ff165b6122d4576040517f08c379a00000000000000000000000000000000000000000000000000000000081526004016122cb906144b8565b60405180910390fd5b600f866040516122e491906142ea565b908152602001604051809103902060009054906101000a900460ff1615612340576040517f08c379a000000000000000000000000000000000000000000000000000000000815260040161233790614718565b60405180910390fd5b6012600081548092919061235390614b2b565b9190505550612386601160009054906101000a900473ffffffffffffffffffffffffffffffffffffffff16601254612d23565b6001600f8760405161239891906142ea565b908152602001604051809103902060006101000a81548160ff0219169083151502179055506040518060a001604052808781526020018681526020018581526020018481526020018381525060106000601254815260200190815260200160002060008201518160000190805190602001906124159291906137be565b5060208201518160010190805190602001906124329291906137be565b50604082015181600201908051906020019061244f9291906137be565b50606082015181600301908051906020019061246c9291906137be565b5060808201518160040155905050601254905095945050505050565b61249181611576565b73ffffffffffffffffffffffffffffffffffffffff166124af6125fb565b73ffffffffffffffffffffffffffffffffffffffff1614612505576040517f08c379a00000000000000000000000000000000000000000000000000000000081526004016124fc90614518565b60405180910390fd5b6125166125106125fb565b82612ef1565b50565b60007f80ac58cd000000000000000000000000000000000000000000000000000000007bffffffffffffffffffffffffffffffffffffffffffffffffffffffff1916827bffffffffffffffffffffffffffffffffffffffffffffffffffffffff191614806125e457507f5b5e139f000000000000000000000000000000000000000000000000000000007bffffffffffffffffffffffffffffffffffffffffffffffffffffffff1916827bffffffffffffffffffffffffffffffffffffffffffffffffffffffff1916145b806125f457506125f382613040565b5b9050919050565b600033905090565b6000818361261191906149de565b905092915050565b600081836126279190614984565b905092915050565b6000818361263d9190614953565b905092915050565b60008073ffffffffffffffffffffffffffffffffffffffff166003600084815260200190815260200160002060009054906101000a900473ffffffffffffffffffffffffffffffffffffffff1673ffffffffffffffffffffffffffffffffffffffff1614159050919050565b816005600083815260200190815260200160002060006101000a81548173ffffffffffffffffffffffffffffffffffffffff021916908373ffffffffffffffffffffffffffffffffffffffff160217905550808273ffffffffffffffffffffffffffffffffffffffff1661272483611576565b73ffffffffffffffffffffffffffffffffffffffff167f8c5be1e5ebec7d5bd14f71427d1e84f3dd0314c0f7b2291e5b200ac8c7c3b92560405160405180910390a45050565b6000818361277891906148fd565b905092915050565b600061278b82612645565b6127ca576040517f08c379a00000000000000000000000000000000000000000000000000000000081526004016127c190614538565b60405180910390fd5b60006127d583611576565b90508073ffffffffffffffffffffffffffffffffffffffff168473ffffffffffffffffffffffffffffffffffffffff16148061284457508373ffffffffffffffffffffffffffffffffffffffff1661282c84610ae2565b73ffffffffffffffffffffffffffffffffffffffff16145b806128555750612854818561214c565b5b91505092915050565b8273ffffffffffffffffffffffffffffffffffffffff1661287e82611576565b73ffffffffffffffffffffffffffffffffffffffff16146128d4576040517f08c379a00000000000000000000000000000000000000000000000000000000081526004016128cb90614678565b60405180910390fd5b600073ffffffffffffffffffffffffffffffffffffffff168273ffffffffffffffffffffffffffffffffffffffff161415612944576040517f08c379a000000000000000000000000000000000000000000000000000000000815260040161293b906144d8565b60405180910390fd5b61294f8383836130aa565b61295a6000826126b1565b6001600460008573ffffffffffffffffffffffffffffffffffffffff1673ffffffffffffffffffffffffffffffffffffffff16815260200190815260200160002060008282546129aa91906149de565b925050819055506001600460008473ffffffffffffffffffffffffffffffffffffffff1673ffffffffffffffffffffffffffffffffffffffff1681526020019081526020016000206000828254612a0191906148fd565b92505081905550816003600083815260200190815260200160002060006101000a81548173ffffffffffffffffffffffffffffffffffffffff021916908373ffffffffffffffffffffffffffffffffffffffff160217905550808273ffffffffffffffffffffffffffffffffffffffff168473ffffffffffffffffffffffffffffffffffffffff167fddf252ad1be2c89b69c2b068fc378daa952ba7f163c4a11628f55a4df523b3ef60405160405180910390a4505050565b8060029080519060200190612ad09291906137be565b5050565b612adf84848461285e565b612aeb848484846131be565b612b2a576040517f08c379a0000000000000000000000000000000000000000000000000000000008152600401612b2190614458565b60405180910390fd5b50505050565b606060028054612b3f90614ac8565b80601f0160208091040260200160405190810160405280929190818152602001828054612b6b90614ac8565b8015612bb85780601f10612b8d57610100808354040283529160200191612bb8565b820191906000526020600020905b815481529060010190602001808311612b9b57829003601f168201915b5050505050905090565b60606000821415612c0a576040518060400160405280600181526020017f30000000000000000000000000000000000000000000000000000000000000008152509050612d1e565b600082905060005b60008214612c3c578080612c2590614b2b565b915050600a82612c359190614953565b9150612c12565b60008167ffffffffffffffff811115612c5857612c57614c90565b5b6040519080825280601f01601f191660200182016040528015612c8a5781602001600182028036833780820191505090505b5090505b60008514612d1757600182612ca391906149de565b9150600a85612cb29190614b74565b6030612cbe91906148fd565b60f81b818381518110612cd457612cd3614c61565b5b60200101907effffffffffffffffffffffffffffffffffffffffffffffffffffffffffffff1916908160001a905350600a85612d109190614953565b9450612c8e565b8093505050505b919050565b600073ffffffffffffffffffffffffffffffffffffffff168273ffffffffffffffffffffffffffffffffffffffff161415612d93576040517f08c379a0000000000000000000000000000000000000000000000000000000008152600401612d8a90614618565b60405180910390fd5b612d9c81612645565b15612ddc576040517f08c379a0000000000000000000000000000000000000000000000000000000008152600401612dd390614498565b60405180910390fd5b612de8600083836130aa565b6001600460008473ffffffffffffffffffffffffffffffffffffffff1673ffffffffffffffffffffffffffffffffffffffff1681526020019081526020016000206000828254612e3891906148fd565b92505081905550816003600083815260200190815260200160002060006101000a81548173ffffffffffffffffffffffffffffffffffffffff021916908373ffffffffffffffffffffffffffffffffffffffff160217905550808273ffffffffffffffffffffffffffffffffffffffff16600073ffffffffffffffffffffffffffffffffffffffff167fddf252ad1be2c89b69c2b068fc378daa952ba7f163c4a11628f55a4df523b3ef60405160405180910390a45050565b60405180606001604052806007600084815260200190815260200160002054815260200142815260200182815250600960008473ffffffffffffffffffffffffffffffffffffffff1673ffffffffffffffffffffffffffffffffffffffff1681526020019081526020016000206000600860008673ffffffffffffffffffffffffffffffffffffffff1673ffffffffffffffffffffffffffffffffffffffff168152602001908152602001600020548152602001908152602001600020600082015181600001556020820151816001015560408201518160020155905050600860008373ffffffffffffffffffffffffffffffffffffffff1673ffffffffffffffffffffffffffffffffffffffff168152602001908152602001600020600081548092919061301f90614b2b565b91905055504260076000838152602001908152602001600020819055505050565b60007f01ffc9a7000000000000000000000000000000000000000000000000000000007bffffffffffffffffffffffffffffffffffffffffffffffffffffffff1916827bffffffffffffffffffffffffffffffffffffffffffffffffffffffff1916149050919050565b6130b5838383613355565b600073ffffffffffffffffffffffffffffffffffffffff168373ffffffffffffffffffffffffffffffffffffffff1614156130f8576130f3816134a5565b613137565b8173ffffffffffffffffffffffffffffffffffffffff168373ffffffffffffffffffffffffffffffffffffffff16146131365761313583826134ee565b5b5b600073ffffffffffffffffffffffffffffffffffffffff168273ffffffffffffffffffffffffffffffffffffffff16141561317a576131758161365b565b6131b9565b8273ffffffffffffffffffffffffffffffffffffffff168273ffffffffffffffffffffffffffffffffffffffff16146131b8576131b7828261372c565b5b5b505050565b60006131df8473ffffffffffffffffffffffffffffffffffffffff166137ab565b15613348578373ffffffffffffffffffffffffffffffffffffffff1663150b7a026132086125fb565b8786866040518563ffffffff1660e01b815260040161322a9493929190614340565b602060405180830381600087803b15801561324457600080fd5b505af192505050801561327557506040513d601f19601f820116820180604052508101906132729190613b9a565b60015b6132f8573d80600081146132a5576040519150601f19603f3d011682016040523d82523d6000602084013e6132aa565b606091505b506000815114156132f0576040517f08c379a00000000000000000000000000000000000000000000000000000000081526004016132e790614458565b60405180910390fd5b805181602001fd5b63150b7a0260e01b7bffffffffffffffffffffffffffffffffffffffffffffffffffffffff1916817bffffffffffffffffffffffffffffffffffffffffffffffffffffffff19161491505061334d565b600190505b949350505050565b60405180606001604052806007600084815260200190815260200160002054815260200142815260200182815250600960008573ffffffffffffffffffffffffffffffffffffffff1673ffffffffffffffffffffffffffffffffffffffff1681526020019081526020016000206000600860008773ffffffffffffffffffffffffffffffffffffffff1673ffffffffffffffffffffffffffffffffffffffff168152602001908152602001600020548152602001908152602001600020600082015181600001556020820151816001015560408201518160020155905050600860008473ffffffffffffffffffffffffffffffffffffffff1673ffffffffffffffffffffffffffffffffffffffff168152602001908152602001600020600081548092919061348390614b2b565b9190505550426007600083815260200190815260200160002081905550505050565b600c80549050600d600083815260200190815260200160002081905550600c81908060018154018082558091505060019003906000526020600020016000909190919091505550565b600060016134fb84611640565b61350591906149de565b90506000600b60008481526020019081526020016000205490508181146135ea576000600a60008673ffffffffffffffffffffffffffffffffffffffff1673ffffffffffffffffffffffffffffffffffffffff168152602001908152602001600020600084815260200190815260200160002054905080600a60008773ffffffffffffffffffffffffffffffffffffffff1673ffffffffffffffffffffffffffffffffffffffff16815260200190815260200160002060008481526020019081526020016000208190555081600b600083815260200190815260200160002081905550505b600b600084815260200190815260200160002060009055600a60008573ffffffffffffffffffffffffffffffffffffffff1673ffffffffffffffffffffffffffffffffffffffff16815260200190815260200160002060008381526020019081526020016000206000905550505050565b60006001600c8054905061366f91906149de565b90506000600d60008481526020019081526020016000205490506000600c838154811061369f5761369e614c61565b5b9060005260206000200154905080600c83815481106136c1576136c0614c61565b5b906000526020600020018190555081600d600083815260200190815260200160002081905550600d600085815260200190815260200160002060009055600c8054806137105761370f614c32565b5b6001900381819060005260206000200160009055905550505050565b600061373783611640565b905081600a60008573ffffffffffffffffffffffffffffffffffffffff1673ffffffffffffffffffffffffffffffffffffffff16815260200190815260200160002060008381526020019081526020016000208190555080600b600084815260200190815260200160002081905550505050565b600080823b905060008111915050919050565b8280546137ca90614ac8565b90600052602060002090601f0160209004810192826137ec5760008555613833565b82601f1061380557805160ff1916838001178555613833565b82800160010185558215613833579182015b82811115613832578251825591602001919060010190613817565b5b5090506138409190613844565b5090565b5b8082111561385d576000816000905550600101613845565b5090565b600061387461386f84614858565b614833565b9050828152602081018484840111156138905761388f614cc4565b5b61389b848285614a86565b509392505050565b60006138b66138b184614889565b614833565b9050828152602081018484840111156138d2576138d1614cc4565b5b6138dd848285614a86565b509392505050565b6000813590506138f481615516565b92915050565b6000813590506139098161552d565b92915050565b60008135905061391e81615544565b92915050565b60008151905061393381615544565b92915050565b600082601f83011261394e5761394d614cbf565b5b813561395e848260208601613861565b91505092915050565b600082601f83011261397c5761397b614cbf565b5b813561398c8482602086016138a3565b91505092915050565b6000813590506139a48161555b565b92915050565b6000602082840312156139c0576139bf614cce565b5b60006139ce848285016138e5565b91505092915050565b600080604083850312156139ee576139ed614cce565b5b60006139fc858286016138e5565b9250506020613a0d858286016138e5565b9150509250929050565b600080600060608486031215613a3057613a2f614cce565b5b6000613a3e868287016138e5565b9350506020613a4f868287016138e5565b9250506040613a6086828701613995565b9150509250925092565b60008060008060808587031215613a8457613a83614cce565b5b6000613a92878288016138e5565b9450506020613aa3878288016138e5565b9350506040613ab487828801613995565b925050606085013567ffffffffffffffff811115613ad557613ad4614cc9565b5b613ae187828801613939565b91505092959194509250565b60008060408385031215613b0457613b03614cce565b5b6000613b12858286016138e5565b9250506020613b23858286016138fa565b9150509250929050565b60008060408385031215613b4457613b43614cce565b5b6000613b52858286016138e5565b9250506020613b6385828601613995565b9150509250929050565b600060208284031215613b8357613b82614cce565b5b6000613b918482850161390f565b91505092915050565b600060208284031215613bb057613baf614cce565b5b6000613bbe84828501613924565b91505092915050565b600060208284031215613bdd57613bdc614cce565b5b600082013567ffffffffffffffff811115613bfb57613bfa614cc9565b5b613c0784828501613967565b91505092915050565b600080600080600060a08688031215613c2c57613c2b614cce565b5b600086013567ffffffffffffffff811115613c4a57613c49614cc9565b5b613c5688828901613967565b955050602086013567ffffffffffffffff811115613c7757613c76614cc9565b5b613c8388828901613967565b945050604086013567ffffffffffffffff811115613ca457613ca3614cc9565b5b613cb088828901613967565b935050606086013567ffffffffffffffff811115613cd157613cd0614cc9565b5b613cdd88828901613967565b9250506080613cee88828901613995565b9150509295509295909350565b600060208284031215613d1157613d10614cce565b5b6000613d1f84828501613995565b91505092915050565b600080600060608486031215613d4157613d40614cce565b5b6000613d4f86828701613995565b935050602084013567ffffffffffffffff811115613d7057613d6f614cc9565b5b613d7c86828701613967565b925050604084013567ffffffffffffffff811115613d9d57613d9c614cc9565b5b613da986828701613967565b9150509250925092565b60008060408385031215613dca57613dc9614cce565b5b6000613dd885828601613995565b9250506020613de985828601613995565b9150509250929050565b600080600060608486031215613e0c57613e0b614cce565b5b6000613e1a86828701613995565b9350506020613e2b86828701613995565b9250506040613e3c86828701613995565b9150509250925092565b613e4f81614a12565b82525050565b613e5e81614a24565b82525050565b6000613e6f826148ba565b613e7981856148d0565b9350613e89818560208601614a95565b613e9281614cd3565b840191505092915050565b6000613ea8826148c5565b613eb281856148e1565b9350613ec2818560208601614a95565b613ecb81614cd3565b840191505092915050565b6000613ee1826148c5565b613eeb81856148f2565b9350613efb818560208601614a95565b80840191505092915050565b6000613f14602b836148e1565b9150613f1f82614ce4565b604082019050919050565b6000613f376032836148e1565b9150613f4282614d33565b604082019050919050565b6000613f5a6025836148e1565b9150613f6582614d82565b604082019050919050565b6000613f7d601c836148e1565b9150613f8882614dd1565b602082019050919050565b6000613fa06034836148e1565b9150613fab82614dfa565b604082019050919050565b6000613fc36024836148e1565b9150613fce82614e49565b604082019050919050565b6000613fe66019836148e1565b9150613ff182614e98565b602082019050919050565b6000614009603a836148e1565b915061401482614ec1565b604082019050919050565b600061402c602c836148e1565b915061403782614f10565b604082019050919050565b600061404f6038836148e1565b915061405a82614f5f565b604082019050919050565b6000614072602a836148e1565b915061407d82614fae565b604082019050919050565b60006140956029836148e1565b91506140a082614ffd565b604082019050919050565b60006140b8603b836148e1565b91506140c38261504c565b604082019050919050565b60006140db6040836148e1565b91506140e68261509b565b604082019050919050565b60006140fe6026836148e1565b9150614109826150ea565b604082019050919050565b60006141216020836148e1565b915061412c82615139565b602082019050919050565b6000614144602c836148e1565b915061414f82615162565b604082019050919050565b60006141676043836148e1565b9150614172826151b1565b606082019050919050565b600061418a6029836148e1565b915061419582615226565b604082019050919050565b60006141ad602f836148e1565b91506141b882615275565b604082019050919050565b60006141d06028836148e1565b91506141db826152c4565b604082019050919050565b60006141f36029836148e1565b91506141fe82615313565b604082019050919050565b60006142166021836148e1565b915061422182615362565b604082019050919050565b60006142396035836148e1565b9150614244826153b1565b604082019050919050565b600061425c600e836148e1565b915061426782615400565b602082019050919050565b600061427f6029836148e1565b915061428a82615429565b604082019050919050565b60006142a26031836148e1565b91506142ad82615478565b604082019050919050565b60006142c5602c836148e1565b91506142d0826154c7565b604082019050919050565b6142e481614a7c565b82525050565b60006142f68284613ed6565b915081905092915050565b600061430d8285613ed6565b91506143198284613ed6565b91508190509392505050565b600060208201905061433a6000830184613e46565b92915050565b60006080820190506143556000830187613e46565b6143626020830186613e46565b61436f60408301856142db565b81810360608301526143818184613e64565b905095945050505050565b60006020820190506143a16000830184613e55565b92915050565b600060208201905081810360008301526143c18184613e9d565b905092915050565b600060a08201905081810360008301526143e38188613e9d565b905081810360208301526143f78187613e9d565b9050818103604083015261440b8186613e9d565b9050818103606083015261441f8185613e9d565b905061442e60808301846142db565b9695505050505050565b6000602082019050818103600083015261445181613f07565b9050919050565b6000602082019050818103600083015261447181613f2a565b9050919050565b6000602082019050818103600083015261449181613f4d565b9050919050565b600060208201905081810360008301526144b181613f70565b9050919050565b600060208201905081810360008301526144d181613f93565b9050919050565b600060208201905081810360008301526144f181613fb6565b9050919050565b6000602082019050818103600083015261451181613fd9565b9050919050565b6000602082019050818103600083015261453181613ffc565b9050919050565b600060208201905081810360008301526145518161401f565b9050919050565b6000602082019050818103600083015261457181614042565b9050919050565b6000602082019050818103600083015261459181614065565b9050919050565b600060208201905081810360008301526145b181614088565b9050919050565b600060208201905081810360008301526145d1816140ab565b9050919050565b600060208201905081810360008301526145f1816140ce565b9050919050565b60006020820190508181036000830152614611816140f1565b9050919050565b6000602082019050818103600083015261463181614114565b9050919050565b6000602082019050818103600083015261465181614137565b9050919050565b600060208201905081810360008301526146718161415a565b9050919050565b600060208201905081810360008301526146918161417d565b9050919050565b600060208201905081810360008301526146b1816141a0565b9050919050565b600060208201905081810360008301526146d1816141c3565b9050919050565b600060208201905081810360008301526146f1816141e6565b9050919050565b6000602082019050818103600083015261471181614209565b9050919050565b600060208201905081810360008301526147318161422c565b9050919050565b600060208201905081810360008301526147518161424f565b9050919050565b6000602082019050818103600083015261477181614272565b9050919050565b6000602082019050818103600083015261479181614295565b9050919050565b600060208201905081810360008301526147b1816142b8565b9050919050565b60006020820190506147cd60008301846142db565b92915050565b60006040820190506147e860008301856142db565b6147f560208301846142db565b9392505050565b600060608201905061481160008301866142db565b61481e60208301856142db565b61482b60408301846142db565b949350505050565b600061483d61484e565b90506148498282614afa565b919050565b6000604051905090565b600067ffffffffffffffff82111561487357614872614c90565b5b61487c82614cd3565b9050602081019050919050565b600067ffffffffffffffff8211156148a4576148a3614c90565b5b6148ad82614cd3565b9050602081019050919050565b600081519050919050565b600081519050919050565b600082825260208201905092915050565b600082825260208201905092915050565b600081905092915050565b600061490882614a7c565b915061491383614a7c565b9250827fffffffffffffffffffffffffffffffffffffffffffffffffffffffffffffffff0382111561494857614947614ba5565b5b828201905092915050565b600061495e82614a7c565b915061496983614a7c565b92508261497957614978614bd4565b5b828204905092915050565b600061498f82614a7c565b915061499a83614a7c565b9250817fffffffffffffffffffffffffffffffffffffffffffffffffffffffffffffffff04831182151516156149d3576149d2614ba5565b5b828202905092915050565b60006149e982614a7c565b91506149f483614a7c565b925082821015614a0757614a06614ba5565b5b828203905092915050565b6000614a1d82614a5c565b9050919050565b60008115159050919050565b60007fffffffff0000000000000000000000000000000000000000000000000000000082169050919050565b600073ffffffffffffffffffffffffffffffffffffffff82169050919050565b6000819050919050565b82818337600083830152505050565b60005b83811015614ab3578082015181840152602081019050614a98565b83811115614ac2576000848401525b50505050565b60006002820490506001821680614ae057607f821691505b60208210811415614af457614af3614c03565b5b50919050565b614b0382614cd3565b810181811067ffffffffffffffff82111715614b2257614b21614c90565b5b80604052505050565b6000614b3682614a7c565b91507fffffffffffffffffffffffffffffffffffffffffffffffffffffffffffffffff821415614b6957614b68614ba5565b5b600182019050919050565b6000614b7f82614a7c565b9150614b8a83614a7c565b925082614b9a57614b99614bd4565b5b828206905092915050565b7f4e487b7100000000000000000000000000000000000000000000000000000000600052601160045260246000fd5b7f4e487b7100000000000000000000000000000000000000000000000000000000600052601260045260246000fd5b7f4e487b7100000000000000000000000000000000000000000000000000000000600052602260045260246000fd5b7f4e487b7100000000000000000000000000000000000000000000000000000000600052603160045260246000fd5b7f4e487b7100000000000000000000000000000000000000000000000000000000600052603260045260246000fd5b7f4e487b7100000000000000000000000000000000000000000000000000000000600052604160045260246000fd5b600080fd5b600080fd5b600080fd5b600080fd5b6000601f19601f8301169050919050565b7f455243373231456e756d657261626c653a206f776e657220696e646578206f7560008201527f74206f6620626f756e6473000000000000000000000000000000000000000000602082015250565b7f4552433732313a207472616e7366657220746f206e6f6e20455243373231526560008201527f63656976657220696d706c656d656e7465720000000000000000000000000000602082015250565b7f2054726565646566693a204f6e6c79204f776e65722063616e20616464206d6960008201527f6e74657220000000000000000000000000000000000000000000000000000000602082015250565b7f4552433732313a20746f6b656e20616c7265616479206d696e74656400000000600082015250565b7f2054726565646566693a204f6e6c79204f776e6572206f72204d696e7465722060008201527f63616e206d696e742074686520746f6b656e7320000000000000000000000000602082015250565b7f4552433732313a207472616e7366657220746f20746865207a65726f2061646460008201527f7265737300000000000000000000000000000000000000000000000000000000602082015250565b7f4552433732313a20617070726f766520746f2063616c6c657200000000000000600082015250565b7f2054726565646566693a204f6e6c79204f776e6572206f6620746f6b656e206360008201527f616e2067656e657261746520636172626f6e2063726564697420000000000000602082015250565b7f4552433732313a206f70657261746f7220717565727920666f72206e6f6e657860008201527f697374656e7420746f6b656e0000000000000000000000000000000000000000602082015250565b7f4552433732313a20617070726f76652063616c6c6572206973206e6f74206f7760008201527f6e6572206e6f7220617070726f76656420666f7220616c6c0000000000000000602082015250565b7f4552433732313a2062616c616e636520717565727920666f7220746865207a6560008201527f726f206164647265737300000000000000000000000000000000000000000000602082015250565b7f4552433732313a206f776e657220717565727920666f72206e6f6e657869737460008201527f656e7420746f6b656e0000000000000000000000000000000000000000000000602082015250565b7f2054726565646566693a204e65772067656e65726174696f6e2065786365656460008201527f732065706f63682067656e65726174696f6e20626f756e747279200000000000602082015250565b7f2054726565646566693a2050726f76696465642076616c7565206973206e6f7460008201527f20656e6f75676820746f2067656e657261746520677265656e20626f6e647320602082015250565b7f2054726565646566693a204f6e6c79204f776e65722063616e2073657420626160008201527f7365555249200000000000000000000000000000000000000000000000000000602082015250565b7f4552433732313a206d696e7420746f20746865207a65726f2061646472657373600082015250565b7f4552433732313a20617070726f76656420717565727920666f72206e6f6e657860008201527f697374656e7420746f6b656e0000000000000000000000000000000000000000602082015250565b7f2054726565646566693a2050726f76696465642076616c7565206973206e6f7460008201527f20656e6f75676820746f2067656e657261746520636172626f6e20637265646960208201527f7473200000000000000000000000000000000000000000000000000000000000604082015250565b7f4552433732313a207472616e73666572206f6620746f6b656e2074686174206960008201527f73206e6f74206f776e0000000000000000000000000000000000000000000000602082015250565b7f4552433732314d657461646174613a2055524920717565727920666f72206e6f60008201527f6e6578697374656e7420746f6b656e0000000000000000000000000000000000602082015250565b7f2054726565646566693a204f6e6c79204f776e65722063616e2072656d6f766560008201527f206d696e74657220000000000000000000000000000000000000000000000000602082015250565b7f2054726565646566693a204f6e6c79204f776e65722063616e2077697468647260008201527f61772066756e6473200000000000000000000000000000000000000000000000602082015250565b7f4552433732313a20617070726f76616c20746f2063757272656e74206f776e6560008201527f7200000000000000000000000000000000000000000000000000000000000000602082015250565b7f2054726565646566693a20746f6b656e20776974682073696d696c617220747260008201527f656520494420616c726561647920657869737473200000000000000000000000602082015250565b7f4e6f2072652d656e7472616e6379000000000000000000000000000000000000600082015250565b7f2054726565646566693a204f6e6c79204f776e65722063616e2065646974207460008201527f7265652064617461200000000000000000000000000000000000000000000000602082015250565b7f4552433732313a207472616e736665722063616c6c6572206973206e6f74206f60008201527f776e6572206e6f7220617070726f766564000000000000000000000000000000602082015250565b7f455243373231456e756d657261626c653a20676c6f62616c20696e646578206f60008201527f7574206f6620626f756e64730000000000000000000000000000000000000000602082015250565b61551f81614a12565b811461552a57600080fd5b50565b61553681614a24565b811461554157600080fd5b50565b61554d81614a30565b811461555857600080fd5b50565b61556481614a7c565b811461556f57600080fd5b5056fea2646970667358221220954c528c29fecb572ee61cf3430129b1ad4ee53cc2a4729bac755c0ab10ec6ab64736f6c63430008060033",
  "immutableReferences": {},
  "source": "// SPDX-License-Identifier: ----\r\n\r\npragma solidity ^0.8.0;\r\n\r\nimport \"./ERC721Enumerable.sol\";\r\n\r\nimport \"./SafeMath.sol\";\r\n\r\ncontract NftreeV2 is ERC721Enumerable {\r\n    \r\n  using SafeMath for uint256;    \r\n  \r\n  // Mapping from address to _isMinter \r\n  mapping(address => bool) private _isMinter;\r\n  \r\n  // Mapping from treeId to _isExists \r\n  mapping(string => bool) public _isExists;\r\n  \r\n  // Mapping from tokenId to tree data\r\n  mapping(uint => Tree) public _treeData;\r\n \r\n  // Address of treedefi owner\r\n  address private _owner;\r\n  \r\n  // Number of trees minted\r\n  uint private _treeCount;\r\n  \r\n  // Fee for carbon credit\r\n  uint256 private _carbonCreditFee;\r\n  \r\n  // Fee for green bond\r\n  uint256 private _greenBondFee;\r\n  \r\n  bool internal _locked;\r\n  \r\n  // Mapping from address to epoch generation data of index\r\n  mapping(address => mapping(uint256 => Generation)) public _epochGeneration;\r\n\r\n  struct Tree {\r\n    string treeId;\r\n    string treeName;\r\n    string longitude;\r\n    string latitude;\r\n    uint256 carbonDioxideOffset;\r\n  }\r\n  \r\n  struct Generation {\r\n        uint256 carbonCredit;\r\n        uint256 greenBond;\r\n  }\r\n  \r\n  modifier noReentrant() {\r\n        require(!_locked, \"No re-entrancy\");\r\n        _locked = true;\r\n        _;\r\n        _locked = false;\r\n  }\r\n\r\n  \r\n  constructor(address own_) ERC721(\"Treedefi Forest V2\", \"FOREST\", \"https://api.treedefi.com/forest/\") {\r\n    _owner = own_;\r\n  }\r\n\r\n\r\n  /**\r\n    * @dev Returns the address of treedefi owner.\r\n    */\r\n  function getOwner() external view returns (address) {\r\n        return _owner;\r\n  }\r\n\r\n\r\n  /** \r\n    * @notice Change baseURI for tokenURI JSON metadata\r\n    * @param URI_ string baseURI to change\r\n    */\r\n  function setBaseURI(string memory URI_) external {\r\n      require(\r\n        _msgSender() == _owner,\r\n        \" Treedefi: Only Owner can set baseURI \"\r\n      );\r\n\r\n    _setBaseURI(URI_);\r\n\r\n  }\r\n  \r\n  /** \r\n    * @notice Add address for minter role\r\n    * @param minter_ address of minter\r\n    */\r\n  function addMinter(address minter_) external {\r\n      require(\r\n        _msgSender() == _owner,\r\n        \" Treedefi: Only Owner can add minter \"\r\n      );\r\n\r\n    _isMinter[minter_] = true;\r\n\r\n  }\r\n  \r\n    /** \r\n    * @notice Remove address for minter role\r\n    * @param minter_ address of minter\r\n    */\r\n  function removeMinter(address minter_) external {\r\n      require(\r\n        _msgSender() == _owner,\r\n        \" Treedefi: Only Owner can remove minter \"\r\n      );\r\n\r\n    _isMinter[minter_] = false;\r\n\r\n  }\r\n\r\n  /** @dev Mint NFT and assign it to `owner`, increasing the total supply.\r\n     *@param treeId_ string defines id of tree\r\n     *@param treeName_ string defines name of tree\r\n     *@param longitude_ string defines longitude of tree\r\n     *@param latitude_ string defines latitude of tree\r\n     *@param carbonDioxideOffset_ unsigned integer defines CO2 offset(gram/year) of tree\r\n     */\r\n  function mint(\r\n      string memory treeId_, \r\n      string memory treeName_, \r\n      string memory longitude_,\r\n      string memory latitude_,\r\n      uint256 carbonDioxideOffset_\r\n  ) \r\n    external \r\n    returns(uint256)\r\n  { \r\n\r\n    require(\r\n      (_msgSender() == _owner || _isMinter[_msgSender()]),\r\n      \" Treedefi: Only Owner or Minter can mint the tokens \"\r\n      );\r\n\r\n    require(\r\n      ! _isExists[treeId_],\r\n      \" Treedefi: token with similar tree ID already exists \"\r\n      );  \r\n    \r\n    \r\n    _treeCount++;\r\n\r\n    _mint(_owner, _treeCount);\r\n    \r\n    _isExists[treeId_] = true;\r\n\r\n    _treeData[_treeCount] = Tree(treeId_, treeName_, longitude_, latitude_, carbonDioxideOffset_);\r\n\r\n    return _treeCount;\r\n    \r\n  }\r\n  \r\n  /** @dev Edit location data of tree\r\n     *@param tokenId_ unsigned integer defines token id of tree\r\n     *@param longitude_ string defines longitude of tree\r\n     *@param latitude_ string defines latitude of tree\r\n     */\r\n  function editTreeData(\r\n      uint256 tokenId_, \r\n      string memory longitude_,\r\n      string memory latitude_\r\n  ) \r\n    external \r\n  {\r\n      \r\n     require(\r\n      _msgSender() == _owner,\r\n      \" Treedefi: Only Owner can edit tree data \"\r\n      );\r\n      \r\n     _treeData[tokenId_].longitude = longitude_;\r\n     \r\n     _treeData[tokenId_].latitude = latitude_;\r\n     \r\n  }\r\n  \r\n  /** @dev Sets fee for carbon credit generation\r\n     *@param fee_ unsigned integer defines fee\r\n     */\r\n  function setCarbonCreditFee(\r\n     uint256 fee_\r\n  ) \r\n    external \r\n  {\r\n      \r\n     require(\r\n      _msgSender() == _owner,\r\n      \" Treedefi: Only Owner can edit tree data \"\r\n      );\r\n      \r\n     _carbonCreditFee = fee_;\r\n     \r\n  }\r\n  \r\n  /** @dev Sets fee for green bond generation\r\n     *@param fee_ unsigned integer defines fee\r\n     */\r\n  function setGreenBondFee(\r\n     uint256 fee_\r\n  ) \r\n    external \r\n  {\r\n      \r\n     require(\r\n      _msgSender() == _owner,\r\n      \" Treedefi: Only Owner can edit tree data \"\r\n      );\r\n      \r\n     _greenBondFee = fee_;\r\n     \r\n  }\r\n  \r\n  /** @dev Generate epoch for token Id\r\n     *@param tokenId_ unsigned integer defines token Id\r\n     */\r\n  function generateEpoch(\r\n     uint256 tokenId_\r\n  )   \r\n    external\r\n  {\r\n      \r\n      require(\r\n       _msgSender() == ownerOf(tokenId_),\r\n       \" Treedefi: Only Owner of token can generate carbon credit \"\r\n      );\r\n      \r\n      _generateEpoch(_msgSender(), tokenId_);\r\n      \r\n  }\r\n  \r\n  /** @dev Generates carbon credits for epoch\r\n     *@param tokenId_ unsigned integer defines token id of tree\r\n     *@param epochIndex_ unsigned integer defines index of epoch\r\n     *@param carbonCredit_ unsigned integer defines number of carbon credits\r\n     */\r\n  function generateCarbonCredit(\r\n     uint256 tokenId_,\r\n     uint256 epochIndex_,\r\n     uint256 carbonCredit_\r\n  )   \r\n    external\r\n    payable\r\n    noReentrant \r\n  {\r\n      \r\n     require(\r\n       msg.value >= carbonCredit_.mul(_carbonCreditFee),\r\n       \" Treedefi: Provided value is not enough to generate carbon credits \"\r\n     );\r\n     \r\n     uint256 _generation = calculateGeneration(tokenId_,epochIndex_);\r\n    \r\n     require(\r\n      _generation >= _epochGeneration[_msgSender()][epochIndex_].carbonCredit\r\n      .add(_epochGeneration[_msgSender()][epochIndex_].greenBond)\r\n      .add(carbonCredit_),\r\n      \" Treedefi: New generation exceeds epoch generation bountry \"\r\n     );\r\n      \r\n     _epochGeneration[_msgSender()][epochIndex_].carbonCredit = \r\n        _epochGeneration[_msgSender()][epochIndex_].carbonCredit\r\n        .add(carbonCredit_);\r\n  }\r\n  \r\n  /** @dev Generates green bonds for epoch\r\n     *@param tokenId_ unsigned integer defines token id of tree\r\n     *@param epochIndex_ unsigned integer defines index of epoch\r\n     *@param greenBond_ unsigned integer defines number of green bonds\r\n     */\r\n  function generateGreenBond(\r\n     uint256 tokenId_,\r\n     uint256 epochIndex_,\r\n     uint256 greenBond_\r\n  )   \r\n    external\r\n    payable\r\n    noReentrant \r\n  {\r\n      \r\n     require(\r\n       msg.value >= greenBond_.mul(_greenBondFee),\r\n       \" Treedefi: Provided value is not enough to generate green bonds \"\r\n     );\r\n     \r\n     uint256 _generation = calculateGeneration(tokenId_,epochIndex_);\r\n    \r\n     require(\r\n      _generation >= _epochGeneration[_msgSender()][epochIndex_].carbonCredit\r\n      .add(_epochGeneration[_msgSender()][epochIndex_].greenBond)\r\n      .add(greenBond_),\r\n      \" Treedefi: New generation exceeds epoch generation bountry \"\r\n     );\r\n      \r\n     _epochGeneration[_msgSender()][epochIndex_].greenBond = \r\n        _epochGeneration[_msgSender()][epochIndex_].greenBond\r\n        .add(greenBond_);\r\n  }\r\n  \r\n  /** @dev Calculates total generation for epoch\r\n     *@param tokenId_ unsigned integer defines token id of tree\r\n     *@param epochIndex_ unsigned integer defines index of epoch\r\n     */\r\n  function calculateGeneration(\r\n     uint256 tokenId_,\r\n     uint256 epochIndex_\r\n  )\r\n    public\r\n    view\r\n    returns (uint256)\r\n  {\r\n     return (_epochData[_msgSender()][epochIndex_].end\r\n            .sub(_epochData[_msgSender()][epochIndex_].start))\r\n            .mul(_treeData[tokenId_].carbonDioxideOffset).div(31536000);\r\n  }    \r\n  \r\n  // withdraw the earnings :-)\r\n  function withdraw() external {\r\n      \r\n    require(\r\n      _msgSender() == _owner,\r\n      \" Treedefi: Only Owner can withdraw funds \"\r\n      );\r\n      \r\n\tuint256 balance = address(this).balance;\r\n\tpayable(_msgSender()).transfer(balance);\r\n  \r\n  }\r\n  \r\n}",
  "sourcePath": "C:/Users/Dhaval/eth/treedefi-nft/src/contracts/NftreeV2.sol",
  "compiler": {
    "name": "solc",
    "version": "0.8.6+commit.11564f7e.Emscripten.clang"
  },
  "schemaVersion": "3.3.3",
  "updatedAt": "2021-06-29T13:33:24.687Z",
  "devdoc": {
    "kind": "dev",
    "methods": {
      "addMinter(address)": {
        "params": {
          "minter_": "address of minter"
        }
      },
      "approve(address,uint256)": {
        "details": "See {IERC721-approve}."
      },
      "balanceOf(address)": {
        "details": "See {IERC721-balanceOf}."
      },
      "calculateGeneration(uint256,uint256)": {
        "details": "Calculates total generation for epoch",
        "params": {
          "epochIndex_": "unsigned integer defines index of epoch",
          "tokenId_": "unsigned integer defines token id of tree"
        }
      },
      "editTreeData(uint256,string,string)": {
        "details": "Edit location data of tree",
        "params": {
          "latitude_": "string defines latitude of tree",
          "longitude_": "string defines longitude of tree",
          "tokenId_": "unsigned integer defines token id of tree"
        }
      },
      "generateCarbonCredit(uint256,uint256,uint256)": {
        "details": "Generates carbon credits for epoch",
        "params": {
          "carbonCredit_": "unsigned integer defines number of carbon credits",
          "epochIndex_": "unsigned integer defines index of epoch",
          "tokenId_": "unsigned integer defines token id of tree"
        }
      },
      "generateEpoch(uint256)": {
        "details": "Generate epoch for token Id",
        "params": {
          "tokenId_": "unsigned integer defines token Id"
        }
      },
      "generateGreenBond(uint256,uint256,uint256)": {
        "details": "Generates green bonds for epoch",
        "params": {
          "epochIndex_": "unsigned integer defines index of epoch",
          "greenBond_": "unsigned integer defines number of green bonds",
          "tokenId_": "unsigned integer defines token id of tree"
        }
      },
      "getApproved(uint256)": {
        "details": "See {IERC721-getApproved}."
      },
      "getOwner()": {
        "details": "Returns the address of treedefi owner."
      },
      "isApprovedForAll(address,address)": {
        "details": "See {IERC721-isApprovedForAll}."
      },
      "mint(string,string,string,string,uint256)": {
        "details": "Mint NFT and assign it to `owner`, increasing the total supply.",
        "params": {
          "carbonDioxideOffset_": "unsigned integer defines CO2 offset(gram/year) of tree",
          "latitude_": "string defines latitude of tree",
          "longitude_": "string defines longitude of tree",
          "treeId_": "string defines id of tree",
          "treeName_": "string defines name of tree"
        }
      },
      "name()": {
        "details": "See {IERC721Metadata-name}."
      },
      "ownerOf(uint256)": {
        "details": "See {IERC721-ownerOf}."
      },
      "removeMinter(address)": {
        "params": {
          "minter_": "address of minter"
        }
      },
      "safeTransferFrom(address,address,uint256)": {
        "details": "See {IERC721-safeTransferFrom}."
      },
      "safeTransferFrom(address,address,uint256,bytes)": {
        "details": "See {IERC721-safeTransferFrom}."
      },
      "setApprovalForAll(address,bool)": {
        "details": "See {IERC721-setApprovalForAll}."
      },
      "setBaseURI(string)": {
        "params": {
          "URI_": "string baseURI to change"
        }
      },
      "setCarbonCreditFee(uint256)": {
        "details": "Sets fee for carbon credit generation",
        "params": {
          "fee_": "unsigned integer defines fee"
        }
      },
      "setGreenBondFee(uint256)": {
        "details": "Sets fee for green bond generation",
        "params": {
          "fee_": "unsigned integer defines fee"
        }
      },
      "supportsInterface(bytes4)": {
        "details": "See {IERC165-supportsInterface}."
      },
      "symbol()": {
        "details": "See {IERC721Metadata-symbol}."
      },
      "tokenByIndex(uint256)": {
        "details": "See {IERC721Enumerable-tokenByIndex}."
      },
      "tokenOfOwnerByIndex(address,uint256)": {
        "details": "See {IERC721Enumerable-tokenOfOwnerByIndex}."
      },
      "tokenURI(uint256)": {
        "details": "See {IERC721Metadata-tokenURI}."
      },
      "totalSupply()": {
        "details": "See {IERC721Enumerable-totalSupply}."
      },
      "transferFrom(address,address,uint256)": {
        "details": "See {IERC721-transferFrom}."
      }
    },
    "version": 1
  },
  "userdoc": {
    "kind": "user",
    "methods": {
      "addMinter(address)": {
        "notice": "Add address for minter role"
      },
      "removeMinter(address)": {
        "notice": "Remove address for minter role"
      },
      "setBaseURI(string)": {
        "notice": "Change baseURI for tokenURI JSON metadata"
      }
    },
    "version": 1
  }
}